{
  "contractName": "Inbox",
  "abi": [
    {
      "inputs": [],
      "payable": false,
      "stateMutability": "nonpayable",
      "type": "constructor"
    },
    {
      "anonymous": false,
      "inputs": [
        {
          "indexed": false,
          "internalType": "string",
          "name": "response",
          "type": "string"
        }
      ],
      "name": "inboxResponse",
      "type": "event"
    },
    {
      "anonymous": false,
      "inputs": [
        {
          "indexed": false,
          "internalType": "string",
          "name": "_ipfsHash",
          "type": "string"
        },
        {
          "indexed": false,
          "internalType": "string",
          "name": "_address",
          "type": "string"
        }
      ],
      "name": "ipfsSent",
      "type": "event"
    },
    {
      "constant": true,
      "inputs": [
        {
          "internalType": "string",
          "name": "",
          "type": "string"
        }
      ],
      "name": "ipfsInbox",
      "outputs": [
        {
          "internalType": "string",
          "name": "",
          "type": "string"
        }
      ],
      "payable": false,
      "stateMutability": "view",
      "type": "function"
    },
    {
      "constant": false,
      "inputs": [
        {
          "internalType": "string",
          "name": "_address",
          "type": "string"
        },
        {
          "internalType": "string",
          "name": "_ipfsHash",
          "type": "string"
        }
      ],
      "name": "sendIPFS",
      "outputs": [],
      "payable": false,
      "stateMutability": "nonpayable",
      "type": "function"
    },
    {
      "constant": true,
      "inputs": [
        {
          "internalType": "string",
          "name": "_address",
          "type": "string"
        }
      ],
      "name": "getHash",
      "outputs": [
        {
          "internalType": "string",
          "name": "",
          "type": "string"
        }
      ],
      "payable": false,
      "stateMutability": "view",
      "type": "function"
    }
  ],
  "bytecode": "0x608060405234801561001057600080fd5b50610952806100206000396000f3fe608060405234801561001057600080fd5b50600436106100415760003560e01c80633bc86509146100465780635b6beeb914610198578063d9fb97f7146102cc575b600080fd5b6101966004803603604081101561005c57600080fd5b810190808035906020019064010000000081111561007957600080fd5b82018360208201111561008b57600080fd5b803590602001918460018302840111640100000000831117156100ad57600080fd5b91908080601f016020809104026020016040519081016040528093929190818152602001838380828437600081840152601f19601f8201169050808301925050505050505091929192908035906020019064010000000081111561011057600080fd5b82018360208201111561012257600080fd5b8035906020019184600183028401116401000000008311171561014457600080fd5b91908080601f016020809104026020016040519081016040528093929190818152602001838380828437600081840152601f19601f820116905080830192505050505050509192919290505050610400565b005b610251600480360360208110156101ae57600080fd5b81019080803590602001906401000000008111156101cb57600080fd5b8201836020820111156101dd57600080fd5b803590602001918460018302840111640100000000831117156101ff57600080fd5b91908080601f016020809104026020016040519081016040528093929190818152602001838380828437600081840152601f19601f8201169050808301925050505050505091929192905050506106a2565b6040518080602001828103825283818151815260200191508051906020019080838360005b83811015610291578082015181840152602081019050610276565b50505050905090810190601f1680156102be5780820380516001836020036101000a031916815260200191505b509250505060405180910390f35b610385600480360360208110156102e257600080fd5b81019080803590602001906401000000008111156102ff57600080fd5b82018360208201111561031157600080fd5b8035906020019184600183028401116401000000008311171561033357600080fd5b91908080601f016020809104026020016040519081016040528093929190818152602001838380828437600081840152601f19601f8201169050808301925050505050505091929192905050506107b2565b6040518080602001828103825283818151815260200191508051906020019080838360005b838110156103c55780820151818401526020810190506103aa565b50505050905090810190601f1680156103f25780820380516001836020036101000a031916815260200191505b509250505060405180910390f35b6000826040518082805190602001908083835b602083106104365780518252602082019150602081019050602083039250610413565b6001836020036101000a03801982511681845116808217855250505050505090500191505090815260200160405180910390208054600181600116156101000203166002900480601f0160208091040260200160405190810160405280929190818152602001828054600181600116156101000203166002900480156104fd5780601f106104d2576101008083540402835291602001916104fd565b820191906000526020600020905b8154815290600101906020018083116104e057829003601f168201915b50505050506060819050600081511461051557600080fd5b826000856040518082805190602001908083835b6020831061054c5780518252602082019150602081019050602083039250610529565b6001836020036101000a03801982511681845116808217855250505050505090500191505090815260200160405180910390209080519060200190610592929190610878565b507fe20751acac1c1604f322f90c67a302e99b44a472645e625269c08832cded23408385604051808060200180602001838103835285818151815260200191508051906020019080838360005b838110156105fa5780820151818401526020810190506105df565b50505050905090810190601f1680156106275780820380516001836020036101000a031916815260200191505b50838103825284818151815260200191508051906020019080838360005b83811015610660578082015181840152602081019050610645565b50505050905090810190601f16801561068d5780820380516001836020036101000a031916815260200191505b5094505050505060405180910390a150505050565b6060806000836040518082805190602001908083835b602083106106db57805182526020820191506020810190506020830392506106b8565b6001836020036101000a03801982511681845116808217855250505050505090500191505090815260200160405180910390208054600181600116156101000203166002900480601f0160208091040260200160405190810160405280929190818152602001828054600181600116156101000203166002900480156107a25780601f10610777576101008083540402835291602001916107a2565b820191906000526020600020905b81548152906001019060200180831161078557829003601f168201915b5050505050905080915050919050565b6000818051602081018201805184825260208301602085012081835280955050505050506000915090508054600181600116156101000203166002900480601f0160208091040260200160405190810160405280929190818152602001828054600181600116156101000203166002900480156108705780601f1061084557610100808354040283529160200191610870565b820191906000526020600020905b81548152906001019060200180831161085357829003601f168201915b505050505081565b828054600181600116156101000203166002900490600052602060002090601f016020900481019282601f106108b957805160ff19168380011785556108e7565b828001600101855582156108e7579182015b828111156108e65782518255916020019190600101906108cb565b5b5090506108f491906108f8565b5090565b61091a91905b808211156109165760008160009055506001016108fe565b5090565b9056fea265627a7a72315820bd773e2e5ffe4b99fec60138adacc07553b7c227abf95e4639eeb397943c66cc64736f6c63430005100032",
  "source": "pragma solidity ^0.5.0;\r\n\r\ncontract Inbox{\r\n    //Structure\r\n    mapping (string=>string) public ipfsInbox;\r\n    \r\n    //Events\r\n    event ipfsSent(string _ipfsHash, string _address);\r\n    event inboxResponse(string response);\r\n    \r\n    //Modifiers\r\n    modifier notFull (string memory _string) {\r\n    bytes memory stringTest = bytes(_string); \r\n    require(stringTest.length==0); \r\n    _;\r\n    }\r\n    \r\n    // An empty constructor that creates an instance of the conteact\r\n    constructor() public{}\r\n    \r\n    //takes in receiver's address and IPFS hash. Places the IPFSadress in the receiver's inbox\r\n    function sendIPFS(string memory _address, string memory _ipfsHash) notFull(ipfsInbox[_address]) public{\r\n        ipfsInbox[_address] = _ipfsHash;\r\n        emit ipfsSent(_ipfsHash, _address);\r\n    }\r\n    \r\n\r\n    //retrieves hash\r\n    function getHash(string memory _address) public view returns(string memory) {\r\n        string memory ipfs_hash=ipfsInbox[_address];\r\n         //emit inboxResponse(ipfs_hash);\r\n        return ipfs_hash;\r\n    }\r\n    \r\n}",
  "sourcePath": "C:/Users/Ademola/apps/Music-share-platform-through-Blockchain/contracts/Inbox.sol",
  "compiler": {
    "name": "solc",
    "version": "0.5.16+commit.9c3226ce.Emscripten.clang"
  },
  "schemaVersion": "3.3.3",
  "updatedAt": "2021-01-19T03:25:55.289Z",
  "networkType": "ethereum",
  "devdoc": {
    "methods": {}
  },
  "userdoc": {
    "methods": {}
  }
}