{
  "contractName": "MOPower",
  "abi": [
    {
      "inputs": [],
      "payable": false,
      "stateMutability": "nonpayable",
      "type": "constructor"
    },
    {
      "anonymous": false,
      "inputs": [
        {
          "indexed": false,
          "internalType": "bytes32",
          "name": "_usernameHash",
          "type": "bytes32"
        },
        {
          "indexed": false,
          "internalType": "string",
          "name": "_message",
          "type": "string"
        }
      ],
      "name": "consumerAuth",
      "type": "event"
    },
    {
      "anonymous": false,
      "inputs": [
        {
          "indexed": false,
          "internalType": "bytes32",
          "name": "_consumerUsernameHash",
          "type": "bytes32"
        },
        {
          "indexed": false,
          "internalType": "string",
          "name": "_message",
          "type": "string"
        }
      ],
      "name": "consumerSaved",
      "type": "event"
    },
    {
      "anonymous": false,
      "inputs": [
        {
          "indexed": false,
          "internalType": "string",
          "name": "_meterSerial",
          "type": "string"
        },
        {
          "indexed": false,
          "internalType": "uint256",
          "name": "_usedUnits",
          "type": "uint256"
        },
        {
          "indexed": false,
          "internalType": "string",
          "name": "_message",
          "type": "string"
        }
      ],
      "name": "consumptionSaved",
      "type": "event"
    },
    {
      "anonymous": false,
      "inputs": [
        {
          "indexed": false,
          "internalType": "string",
          "name": "_message",
          "type": "string"
        }
      ],
      "name": "meterCountUpdated",
      "type": "event"
    },
    {
      "anonymous": false,
      "inputs": [
        {
          "indexed": false,
          "internalType": "string",
          "name": "_meterId",
          "type": "string"
        },
        {
          "indexed": false,
          "internalType": "bytes32",
          "name": "_consumerUsername",
          "type": "bytes32"
        },
        {
          "indexed": false,
          "internalType": "string",
          "name": "_message",
          "type": "string"
        }
      ],
      "name": "meterSaved",
      "type": "event"
    },
    {
      "anonymous": false,
      "inputs": [
        {
          "components": [
            {
              "internalType": "uint256",
              "name": "id",
              "type": "uint256"
            },
            {
              "internalType": "string",
              "name": "meterSerial",
              "type": "string"
            },
            {
              "internalType": "string",
              "name": "token",
              "type": "string"
            },
            {
              "internalType": "bytes32",
              "name": "consumerUsernameHash",
              "type": "bytes32"
            },
            {
              "internalType": "bytes32",
              "name": "producerUsernameHash",
              "type": "bytes32"
            },
            {
              "internalType": "uint64",
              "name": "unitsBought",
              "type": "uint64"
            },
            {
              "internalType": "uint256",
              "name": "price",
              "type": "uint256"
            }
          ],
          "indexed": false,
          "internalType": "struct MOPower.Transaction[]",
          "name": "_transactions",
          "type": "tuple[]"
        },
        {
          "indexed": false,
          "internalType": "string",
          "name": "_message",
          "type": "string"
        }
      ],
      "name": "meterTrasactionsFetched",
      "type": "event"
    },
    {
      "anonymous": false,
      "inputs": [
        {
          "indexed": false,
          "internalType": "bytes32",
          "name": "_producerUsernameHash",
          "type": "bytes32"
        },
        {
          "indexed": false,
          "internalType": "string",
          "name": "_message",
          "type": "string"
        }
      ],
      "name": "producerSaved",
      "type": "event"
    },
    {
      "anonymous": false,
      "inputs": [
        {
          "indexed": false,
          "internalType": "string",
          "name": "_token",
          "type": "string"
        },
        {
          "indexed": false,
          "internalType": "string",
          "name": "_message",
          "type": "string"
        }
      ],
      "name": "transactionSaved",
      "type": "event"
    },
    {
      "anonymous": false,
      "inputs": [
        {
          "components": [
            {
              "internalType": "uint256",
              "name": "id",
              "type": "uint256"
            },
            {
              "internalType": "string",
              "name": "meterSerial",
              "type": "string"
            },
            {
              "internalType": "string",
              "name": "token",
              "type": "string"
            },
            {
              "internalType": "bytes32",
              "name": "consumerUsernameHash",
              "type": "bytes32"
            },
            {
              "internalType": "bytes32",
              "name": "producerUsernameHash",
              "type": "bytes32"
            },
            {
              "internalType": "uint64",
              "name": "unitsBought",
              "type": "uint64"
            },
            {
              "internalType": "uint256",
              "name": "price",
              "type": "uint256"
            }
          ],
          "indexed": false,
          "internalType": "struct MOPower.Transaction",
          "name": "_transaction",
          "type": "tuple"
        },
        {
          "indexed": false,
          "internalType": "string",
          "name": "_message",
          "type": "string"
        }
      ],
      "name": "trasactionFetched",
      "type": "event"
    },
    {
      "constant": false,
      "inputs": [
        {
          "internalType": "string",
          "name": "_serial",
          "type": "string"
        },
        {
          "internalType": "bytes32",
          "name": "_consumerUsernameHash",
          "type": "bytes32"
        },
        {
          "internalType": "uint64",
          "name": "_startUnitBalance",
          "type": "uint64"
        }
      ],
      "name": "addMeter",
      "outputs": [],
      "payable": false,
      "stateMutability": "nonpayable",
      "type": "function"
    },
    {
      "constant": false,
      "inputs": [
        {
          "internalType": "string",
          "name": "username",
          "type": "string"
        },
        {
          "internalType": "string",
          "name": "password",
          "type": "string"
        }
      ],
      "name": "addConsumer",
      "outputs": [],
      "payable": false,
      "stateMutability": "nonpayable",
      "type": "function"
    },
    {
      "constant": false,
      "inputs": [
        {
          "internalType": "string",
          "name": "username",
          "type": "string"
        },
        {
          "internalType": "string",
          "name": "password",
          "type": "string"
        }
      ],
      "name": "addProducer",
      "outputs": [],
      "payable": false,
      "stateMutability": "nonpayable",
      "type": "function"
    },
    {
      "constant": false,
      "inputs": [
        {
          "internalType": "string",
          "name": "_meterSerial",
          "type": "string"
        },
        {
          "internalType": "string",
          "name": "_token",
          "type": "string"
        },
        {
          "internalType": "bytes32",
          "name": "_consumerUsernameHash",
          "type": "bytes32"
        },
        {
          "internalType": "bytes32",
          "name": "_producerUsernameHash",
          "type": "bytes32"
        },
        {
          "internalType": "uint64",
          "name": "_unitsBought",
          "type": "uint64"
        },
        {
          "internalType": "uint64",
          "name": "_price",
          "type": "uint64"
        }
      ],
      "name": "addTransaction",
      "outputs": [],
      "payable": false,
      "stateMutability": "nonpayable",
      "type": "function"
    },
    {
      "constant": false,
      "inputs": [
        {
          "internalType": "string",
          "name": "_meterSerial",
          "type": "string"
        },
        {
          "internalType": "uint64",
          "name": "_consumedUnits",
          "type": "uint64"
        }
      ],
      "name": "addConsumption",
      "outputs": [],
      "payable": false,
      "stateMutability": "nonpayable",
      "type": "function"
    },
    {
      "constant": false,
      "inputs": [
        {
          "internalType": "string",
          "name": "_rawUsername",
          "type": "string"
        },
        {
          "internalType": "string",
          "name": "_rawPassword",
          "type": "string"
        }
      ],
      "name": "getConsumerAuth",
      "outputs": [
        {
          "components": [
            {
              "internalType": "uint64",
              "name": "id",
              "type": "uint64"
            },
            {
              "internalType": "uint8",
              "name": "meterCount",
              "type": "uint8"
            },
            {
              "internalType": "bytes32",
              "name": "usernameHash",
              "type": "bytes32"
            },
            {
              "internalType": "bytes32",
              "name": "passwordHash",
              "type": "bytes32"
            }
          ],
          "internalType": "struct MOPower.Consumer",
          "name": "_consumer",
          "type": "tuple"
        }
      ],
      "payable": false,
      "stateMutability": "nonpayable",
      "type": "function"
    },
    {
      "constant": false,
      "inputs": [
        {
          "internalType": "string",
          "name": "_meterSerial",
          "type": "string"
        }
      ],
      "name": "getMeterTransactions",
      "outputs": [
        {
          "components": [
            {
              "internalType": "uint256",
              "name": "id",
              "type": "uint256"
            },
            {
              "internalType": "string",
              "name": "meterSerial",
              "type": "string"
            },
            {
              "internalType": "string",
              "name": "token",
              "type": "string"
            },
            {
              "internalType": "bytes32",
              "name": "consumerUsernameHash",
              "type": "bytes32"
            },
            {
              "internalType": "bytes32",
              "name": "producerUsernameHash",
              "type": "bytes32"
            },
            {
              "internalType": "uint64",
              "name": "unitsBought",
              "type": "uint64"
            },
            {
              "internalType": "uint256",
              "name": "price",
              "type": "uint256"
            }
          ],
          "internalType": "struct MOPower.Transaction[]",
          "name": "_meterTransactions",
          "type": "tuple[]"
        }
      ],
      "payable": false,
      "stateMutability": "nonpayable",
      "type": "function"
    },
    {
      "constant": false,
      "inputs": [
        {
          "internalType": "string",
          "name": "_token",
          "type": "string"
        },
        {
          "internalType": "string",
          "name": "_meterSerial",
          "type": "string"
        }
      ],
      "name": "getTransaction",
      "outputs": [
        {
          "components": [
            {
              "internalType": "uint256",
              "name": "id",
              "type": "uint256"
            },
            {
              "internalType": "string",
              "name": "meterSerial",
              "type": "string"
            },
            {
              "internalType": "string",
              "name": "token",
              "type": "string"
            },
            {
              "internalType": "bytes32",
              "name": "consumerUsernameHash",
              "type": "bytes32"
            },
            {
              "internalType": "bytes32",
              "name": "producerUsernameHash",
              "type": "bytes32"
            },
            {
              "internalType": "uint64",
              "name": "unitsBought",
              "type": "uint64"
            },
            {
              "internalType": "uint256",
              "name": "price",
              "type": "uint256"
            }
          ],
          "internalType": "struct MOPower.Transaction",
          "name": "_transaction",
          "type": "tuple"
        }
      ],
      "payable": false,
      "stateMutability": "nonpayable",
      "type": "function"
    }
  ],
  "bytecode": "0x608060405234801561001057600080fd5b50336000806101000a81548173ffffffffffffffffffffffffffffffffffffffff021916908373ffffffffffffffffffffffffffffffffffffffff160217905550612232806100606000396000f3fe608060405234801561001057600080fd5b50600436106100885760003560e01c80638d9273f61161005b5780638d9273f614610111578063a8ae28051461012d578063ed3596b51461015d578063f23623641461017957610088565b80631197e7341461008d57806357b27701146100a95780636bc0a19b146100d957806382b43b22146100f5575b600080fd5b6100a760048036036100a291908101906115bb565b6101a9565b005b6100c360048036036100be91908101906115bb565b610375565b6040516100d09190611f8a565b60405180910390f35b6100f360048036036100ee91908101906115bb565b6104d5565b005b61010f600480360361010a9190810190611554565b610693565b005b61012b60048036036101269190810190611627565b610871565b005b61014760048036036101429190810190611513565b610b35565b6040516101549190611d2d565b60405180910390f35b610177600480360361017291908101906116e0565b610dea565b005b610193600480360361018e91908101906115bb565b611036565b6040516101a09190611f6f565b60405180910390f35b6000809054906101000a900473ffffffffffffffffffffffffffffffffffffffff1673ffffffffffffffffffffffffffffffffffffffff163373ffffffffffffffffffffffffffffffffffffffff1614610238576040517f08c379a000000000000000000000000000000000000000000000000000000000815260040161022f90611eef565b60405180910390fd5b60008260405160200161024b9190611e12565b6040516020818303038152906040528051906020012090506000826040516020016102769190611e12565b6040516020818303038152906040528051906020012090506102966112d4565b8281604001818152505081816060018181525050806003600085815260200190815260200160002060008201518160000160006101000a81548167ffffffffffffffff021916908367ffffffffffffffff16021790555060208201518160000160086101000a81548167ffffffffffffffff021916908367ffffffffffffffff16021790555060408201518160010155606082015181600201559050507f688d24dd32471a6052d82f206d3abcf430cd23b1d9baacbe9b3a86cfabe282c881604001516040516103669190611de4565b60405180910390a15050505050565b61037d611316565b606061038883610b35565b90506000600182510390505b6000811061043057846040516020016103ad9190611d16565b604051602081830303815290604052805190602001208282815181106103cf57fe5b6020026020010151604001516040516020016103eb9190611cff565b6040516020818303038152906040528051906020012014156104225781818151811061041357fe5b60200260200101519250610430565b808060019003915050610394565b5060606040518060600160405280602681526020016121a8602691399050600183600001511015610494576040518060400160405280601581526020017f7472616e73616374696f6e206e6f7420666f756e64000000000000000000000081525090505b7f9f534a83f03bd1094b0e3d596e7a3c6ba8e3b68875b488211582e5af75957fe983826040516104c5929190611fac565b60405180910390a1505092915050565b6000809054906101000a900473ffffffffffffffffffffffffffffffffffffffff1673ffffffffffffffffffffffffffffffffffffffff163373ffffffffffffffffffffffffffffffffffffffff1614610564576040517f08c379a000000000000000000000000000000000000000000000000000000000815260040161055b90611eef565b60405180910390fd5b6000826040516020016105779190611e12565b6040516020818303038152906040528051906020012090506000826040516020016105a29190611e12565b6040516020818303038152906040528051906020012090506105c2611363565b8281604001818152505081816060018181525050806004600085815260200190815260200160002060008201518160000160006101000a81548167ffffffffffffffff021916908367ffffffffffffffff16021790555060208201518160000160086101000a81548160ff021916908360ff16021790555060408201518160010155606082015181600201559050507fd4a75dab37510dbf597b3992b7bd47b25faed85a367255d4047b0463ade0ec7c81604001516040516106849190611db6565b60405180910390a15050505050565b6000809054906101000a900473ffffffffffffffffffffffffffffffffffffffff1673ffffffffffffffffffffffffffffffffffffffff163373ffffffffffffffffffffffffffffffffffffffff1614610722576040517f08c379a000000000000000000000000000000000000000000000000000000000815260040161071990611eef565b60405180910390fd5b61072b826111cc565b61076a576040517f08c379a000000000000000000000000000000000000000000000000000000000815260040161076190611f2f565b60405180910390fd5b61077261139e565b83816000018190525081816020019067ffffffffffffffff16908167ffffffffffffffff168152505082816040018181525050806005856040516107b69190611d16565b908152602001604051809103902060008201518160000190805190602001906107e09291906113cc565b5060208201518160010160006101000a81548167ffffffffffffffff021916908367ffffffffffffffff1602179055506040820151816002015590505061082a8160400151611202565b7f63756c55a8fface27c066fbb539d63f07dfa9e681c605598225a560031330ad681600001518260400151604051610863929190611e34565b60405180910390a150505050565b6000809054906101000a900473ffffffffffffffffffffffffffffffffffffffff1673ffffffffffffffffffffffffffffffffffffffff163373ffffffffffffffffffffffffffffffffffffffff1614610900576040517f08c379a00000000000000000000000000000000000000000000000000000000081526004016108f790611eef565b60405180910390fd5b61090986611282565b610948576040517f08c379a000000000000000000000000000000000000000000000000000000000815260040161093f90611f0f565b60405180910390fd5b610950611316565b8681602001819052508581604001819052508481606001818152505083816080018181525050828160a0019067ffffffffffffffff16908167ffffffffffffffff16815250508167ffffffffffffffff168160c0018181525050600781602001516040516109be9190611cff565b90815260200160405180910390208190806001815401808255809150509060018203906000526020600020906007020160009091929091909150600082015181600001556020820151816001019080519060200190610a1e9291906113cc565b506040820151816002019080519060200190610a3b9291906113cc565b50606082015181600301556080820151816004015560a08201518160050160006101000a81548167ffffffffffffffff021916908367ffffffffffffffff16021790555060c082015181600601555050508260058260200151604051610aa19190611cff565b908152602001604051809103902060010160008282829054906101000a900467ffffffffffffffff160192506101000a81548167ffffffffffffffff021916908367ffffffffffffffff1602179055507fdd15aef700b6baf1da9dc5871a496002f1cc21489d388cf72db3db4357acabb88160400151604051610b249190611e77565b60405180910390a150505050505050565b6060600782604051610b479190611d16565b9081526020016040518091039020805480602002602001604051908101604052809291908181526020016000905b82821015610d4557838290600052602060002090600702016040518060e001604052908160008201548152602001600182018054600181600116156101000203166002900480601f016020809104026020016040519081016040528092919081815260200182805460018160011615610100020316600290048015610c3b5780601f10610c1057610100808354040283529160200191610c3b565b820191906000526020600020905b815481529060010190602001808311610c1e57829003601f168201915b50505050508152602001600282018054600181600116156101000203166002900480601f016020809104026020016040519081016040528092919081815260200182805460018160011615610100020316600290048015610cdd5780601f10610cb257610100808354040283529160200191610cdd565b820191906000526020600020905b815481529060010190602001808311610cc057829003601f168201915b5050505050815260200160038201548152602001600482015481526020016005820160009054906101000a900467ffffffffffffffff1667ffffffffffffffff1667ffffffffffffffff16815260200160068201548152505081526020019060010190610b75565b5050505090506060604051806060016040528060278152602001612181602791399050600082511415610dab576040518060400160405280601681526020017f7472616e73616374696f6e73206e6f7420666f756e640000000000000000000081525090505b7ffa99d3c7baaee6022c8f30650defc2c209fa2767178e31b167d4436a32a2ec668282604051610ddc929190611d4f565b60405180910390a150919050565b6000809054906101000a900473ffffffffffffffffffffffffffffffffffffffff1673ffffffffffffffffffffffffffffffffffffffff163373ffffffffffffffffffffffffffffffffffffffff1614610e79576040517f08c379a0000000000000000000000000000000000000000000000000000000008152600401610e7090611eef565b60405180910390fd5b610e8282611282565b610ec1576040517f08c379a0000000000000000000000000000000000000000000000000000000008152600401610eb890611f0f565b60405180910390fd5b610ec961144c565b81816020019067ffffffffffffffff16908167ffffffffffffffff168152505082816000018190525060088160000151604051610f069190611cff565b908152602001604051809103902081908060018154018082558091505090600182039060005260206000209060020201600090919290919091506000820151816000019080519060200190610f5c9291906113cc565b5060208201518160010160006101000a81548167ffffffffffffffff021916908367ffffffffffffffff16021790555050505081600584604051610fa09190611d16565b908152602001604051809103902060010160008282829054906101000a900467ffffffffffffffff160392506101000a81548167ffffffffffffffff021916908367ffffffffffffffff1602179055507fd7c303a1058840daf2fbd621ffbdb495c4107669f193ebf87d770a33650a4e0281600001518260200151604051611029929190611eac565b60405180910390a1505050565b61103e611363565b6000836040516020016110519190611e12565b604051602081830303815290604052805190602001209050600460008281526020019081526020016000206040518060800160405290816000820160009054906101000a900467ffffffffffffffff1667ffffffffffffffff1667ffffffffffffffff1681526020016000820160089054906101000a900460ff1660ff1660ff16815260200160018201548152602001600282015481525050915060606040518060200160405280600081525090508260600151846040516020016111169190611e12565b604051602081830303815290604052805190602001201415611152576040518060600160405280602281526020016121ce60229139905061118b565b6040518060400160405280601581526020017f61757468656e7469636174696f6e206661696c6564000000000000000000000081525090505b7f231226dd106d4aca2101ee4efd92aec1463f12fefe62a5e4e262c2039308e78582826040516111bc929190611d86565b60405180910390a1505092915050565b60008060001b600460008481526020019081526020016000206001015414156111f857600090506111fd565b600190505b919050565b600060046000838152602001908152602001600020905060018160000160088282829054906101000a900460ff160192506101000a81548160ff021916908360ff1602179055507fb1fa8e515145b4fe796c89558308586521431ea61c3e09200cb942db0694eecf60405161127690611f4f565b60405180910390a15050565b6000806005836040516112959190611d16565b908152602001604051809103902060000180546001816001161561010002031660029004905014156112ca57600090506112cf565b600190505b919050565b6040518060800160405280600067ffffffffffffffff168152602001600067ffffffffffffffff16815260200160008019168152602001600080191681525090565b6040518060e001604052806000815260200160608152602001606081526020016000801916815260200160008019168152602001600067ffffffffffffffff168152602001600081525090565b6040518060800160405280600067ffffffffffffffff168152602001600060ff16815260200160008019168152602001600080191681525090565b604051806060016040528060608152602001600067ffffffffffffffff168152602001600080191681525090565b828054600181600116156101000203166002900490600052602060002090601f016020900481019282601f1061140d57805160ff191683800117855561143b565b8280016001018555821561143b579182015b8281111561143a57825182559160200191906001019061141f565b5b5090506114489190611470565b5090565b604051806040016040528060608152602001600067ffffffffffffffff1681525090565b61149291905b8082111561148e576000816000905550600101611476565b5090565b90565b6000813590506114a481612152565b92915050565b600082601f8301126114bb57600080fd5b81356114ce6114c982612010565b611fe3565b915080825260208301602083018583830111156114ea57600080fd5b6114f58382846120ff565b50505092915050565b60008135905061150d81612169565b92915050565b60006020828403121561152557600080fd5b600082013567ffffffffffffffff81111561153f57600080fd5b61154b848285016114aa565b91505092915050565b60008060006060848603121561156957600080fd5b600084013567ffffffffffffffff81111561158357600080fd5b61158f868287016114aa565b93505060206115a086828701611495565b92505060406115b1868287016114fe565b9150509250925092565b600080604083850312156115ce57600080fd5b600083013567ffffffffffffffff8111156115e857600080fd5b6115f4858286016114aa565b925050602083013567ffffffffffffffff81111561161157600080fd5b61161d858286016114aa565b9150509250929050565b60008060008060008060c0878903121561164057600080fd5b600087013567ffffffffffffffff81111561165a57600080fd5b61166689828a016114aa565b965050602087013567ffffffffffffffff81111561168357600080fd5b61168f89828a016114aa565b95505060406116a089828a01611495565b94505060606116b189828a01611495565b93505060806116c289828a016114fe565b92505060a06116d389828a016114fe565b9150509295509295509295565b600080604083850312156116f357600080fd5b600083013567ffffffffffffffff81111561170d57600080fd5b611719858286016114aa565b925050602061172a858286016114fe565b9150509250929050565b60006117408383611c20565b905092915050565b60006117538261204c565b61175d818561207a565b93508360208202850161176f8561203c565b8060005b858110156117ab578484038952815161178c8582611734565b94506117978361206d565b925060208a01995050600181019050611773565b50829750879550505050505092915050565b6117c6816120b8565b82525050565b6117d5816120b8565b82525050565b60006117e682612062565b6117f0818561209c565b935061180081856020860161210e565b61180981612141565b840191505092915050565b600061181f82612062565b61182981856120ad565b935061183981856020860161210e565b80840191505092915050565b600061185082612057565b61185a818561208b565b935061186a81856020860161210e565b61187381612141565b840191505092915050565b600061188982612057565b611893818561209c565b93506118a381856020860161210e565b6118ac81612141565b840191505092915050565b60006118c282612057565b6118cc81856120ad565b93506118dc81856020860161210e565b80840191505092915050565b60006118f5601e8361209c565b91507f7472616e73616374696f6e206164646564207375636365737366756c6c7900006000830152602082019050919050565b600061193560138361209c565b91507f43616c6c6572206973206e6f74206f776e6572000000000000000000000000006000830152602082019050919050565b6000611975601e8361209c565b91507f636f6e73756d7074696f6e207361766564207375636365737366756c6c7900006000830152602082019050919050565b60006119b560188361209c565b91507f6d65746572206164646564207375636365737366756c6c7900000000000000006000830152602082019050919050565b60006119f560148361209c565b91507f6d6574657220646f6573206e6f742065786973740000000000000000000000006000830152602082019050919050565b6000611a35601b8361209c565b91507f636f6e73756d6572206164646564207375636365737366756c6c7900000000006000830152602082019050919050565b6000611a75601e8361209c565b91507f6e6f206578697374696e6720637573746f6d657220666f72206d6574657200006000830152602082019050919050565b6000611ab5601b8361209c565b91507f70726f6475636572206164646564207375636365737366756c6c7900000000006000830152602082019050919050565b6000611af5601c8361209c565b91507f636f6e73756d6572206d6574657220636f756e742075706461746564000000006000830152602082019050919050565b608082016000820151611b3e6000850182611ce1565b506020820151611b516020850182611cf0565b506040820151611b6460408501826117bd565b506060820151611b7760608501826117bd565b50505050565b600060e083016000830151611b956000860182611cc3565b5060208301518482036020860152611bad8282611845565b91505060408301518482036040860152611bc78282611845565b9150506060830151611bdc60608601826117bd565b506080830151611bef60808601826117bd565b5060a0830151611c0260a0860182611ce1565b5060c0830151611c1560c0860182611cc3565b508091505092915050565b600060e083016000830151611c386000860182611cc3565b5060208301518482036020860152611c508282611845565b91505060408301518482036040860152611c6a8282611845565b9150506060830151611c7f60608601826117bd565b506080830151611c9260808601826117bd565b5060a0830151611ca560a0860182611ce1565b5060c0830151611cb860c0860182611cc3565b508091505092915050565b611ccc816120c2565b82525050565b611cdb816120ed565b82525050565b611cea816120cc565b82525050565b611cf9816120e0565b82525050565b6000611d0b82846118b7565b915081905092915050565b6000611d228284611814565b915081905092915050565b60006020820190508181036000830152611d478184611748565b905092915050565b60006040820190508181036000830152611d698185611748565b90508181036020830152611d7d81846117db565b90509392505050565b6000604082019050611d9b60008301856117cc565b8181036020830152611dad81846117db565b90509392505050565b6000604082019050611dcb60008301846117cc565b8181036020830152611ddc81611a28565b905092915050565b6000604082019050611df960008301846117cc565b8181036020830152611e0a81611aa8565b905092915050565b60006020820190508181036000830152611e2c81846117db565b905092915050565b60006060820190508181036000830152611e4e818561187e565b9050611e5d60208301846117cc565b8181036040830152611e6e816119a8565b90509392505050565b60006040820190508181036000830152611e91818461187e565b90508181036020830152611ea4816118e8565b905092915050565b60006060820190508181036000830152611ec6818561187e565b9050611ed56020830184611cd2565b8181036040830152611ee681611968565b90509392505050565b60006020820190508181036000830152611f0881611928565b9050919050565b60006020820190508181036000830152611f28816119e8565b9050919050565b60006020820190508181036000830152611f4881611a68565b9050919050565b60006020820190508181036000830152611f6881611ae8565b9050919050565b6000608082019050611f846000830184611b28565b92915050565b60006020820190508181036000830152611fa48184611b7d565b905092915050565b60006040820190508181036000830152611fc68185611b7d565b90508181036020830152611fda81846117db565b90509392505050565b6000604051905081810181811067ffffffffffffffff8211171561200657600080fd5b8060405250919050565b600067ffffffffffffffff82111561202757600080fd5b601f19601f8301169050602081019050919050565b6000819050602082019050919050565b600081519050919050565b600081519050919050565b600081519050919050565b6000602082019050919050565b600082825260208201905092915050565b600082825260208201905092915050565b600082825260208201905092915050565b600081905092915050565b6000819050919050565b6000819050919050565b600067ffffffffffffffff82169050919050565b600060ff82169050919050565b60006120f8826120cc565b9050919050565b82818337600083830152505050565b60005b8381101561212c578082015181840152602081019050612111565b8381111561213b576000848401525b50505050565b6000601f19601f8301169050919050565b61215b816120b8565b811461216657600080fd5b50565b612172816120cc565b811461217d57600080fd5b5056fe6d65746572207472616e73616374696f6e732066657463686564207375636365737366756c6c796d65746572207472616e73616374696f6e2066657463686564207375636365737366756c6c79636f6e73756d65722061757468656e7469636174696f6e207375636365737366756ca365627a7a7231582025185e38c9a853041aa1ce7612855840c17962095b89b5574f91bf4aa8b0a4496c6578706572696d656e74616cf564736f6c63430005100040",
  "source": "pragma solidity >=0.5.10 <0.6.0;\r\npragma experimental ABIEncoderV2;\r\n\r\n/** \r\n * @title MOPower\r\n * @dev Implements meter transactions and consumption on immutable ledger\r\n */\r\ncontract MOPower {\r\n    \r\n    address private owner;\r\n    \r\n    /** \r\n     * @dev Check if caller is owner\r\n     */\r\n    modifier isOwner() {\r\n        // If the first argument of 'require' evaluates to 'false', execution terminates and all\r\n        // changes to the state and to Ether balances are reverted.\r\n        // This used to consume all gas in old EVM versions, but not anymore.\r\n        // It is often a good idea to use 'require' to check if functions are called correctly.\r\n        // As a second argument, you can also provide an explanation about what went wrong.\r\n        require(msg.sender == owner, \"Caller is not owner\");\r\n        _;\r\n    }\r\n    \r\n    /** \r\n     * @dev Initialize contract and set owner as sender\r\n     */\r\n    constructor () public {\r\n        owner = msg.sender;\r\n    }\r\n    \r\n    Producer[] producers;\r\n    //Consumer[] consumers;\r\n    EnergyConsumption[] energyUsages;\r\n    \r\n    // list of all producers mapped by their unique usernameHash\r\n    mapping(bytes32 => Producer) private producers_map;\r\n    // list of all consumers mapped by their unique usernameHash\r\n    mapping(bytes32 => Consumer) private consumers_map;\r\n    // list of all meters mapped by their unique id\r\n    mapping(string => Meter) private meters_map;\r\n    // list of all transactions mapped by their reference\r\n    mapping(string => Transaction) private transactions_map;\r\n    // list of all transactions done on a meter (by meter serial)\r\n    mapping(string => Transaction[]) private meterTransactions_map;\r\n    // list of all energy consumed by a meter\r\n    mapping(string => EnergyConsumption[]) private meterConsumptions_map;\r\n    \r\n    event meterSaved(string _meterId, bytes32 _consumerUsername, string _message);\r\n    event consumerSaved(bytes32 _consumerUsernameHash, string _message);\r\n    event producerSaved(bytes32 _producerUsernameHash, string _message);\r\n    event transactionSaved(string _token, string _message);\r\n    event consumptionSaved(string _meterSerial, uint _usedUnits, string _message);\r\n    \r\n    event meterTrasactionsFetched(Transaction[] _transactions, string _message);\r\n    event trasactionFetched(Transaction _transaction, string _message);\r\n    \r\n    event meterCountUpdated(string _message);\r\n    event consumerAuth(bytes32 _usernameHash, string _message);\r\n\r\n    \r\n    // sells energy tokens for meter\r\n    struct Producer {\r\n        uint64 id;\r\n        uint64 currentPrice; //in kobo\r\n        bytes32 usernameHash;\r\n        bytes32 passwordHash;\r\n    }\r\n    \r\n    // buys energy token for meter\r\n    struct Consumer {\r\n        uint64 id;\r\n        uint8 meterCount;\r\n        //string username;\r\n        bytes32 usernameHash;\r\n        bytes32 passwordHash;\r\n    }\r\n    \r\n    // smart meters owned by consumers\r\n    struct Meter {\r\n        string serial;\r\n        uint64 unitBalance;\r\n        bytes32 consumerUsernameHash;\r\n    }\r\n    \r\n    // meter token transaction\r\n    struct Transaction {\r\n        uint id;\r\n        string meterSerial;\r\n        string token;\r\n        bytes32 consumerUsernameHash;\r\n        bytes32 producerUsernameHash;\r\n        uint64 unitsBought;\r\n        uint256 price; // (current) price in kobo when unit was purchase\r\n        //uint transactionTimestamp;\r\n    }\r\n    \r\n    // smart meter energy consumption\r\n    struct EnergyConsumption {\r\n        string meterSerial;\r\n        uint64 consumedUnits;\r\n    }\r\n    \r\n    /** \r\n     * @dev Save new meter on chain\r\n     * @param _serial The unique ID of the meter\r\n     * @param _consumerUsernameHash The hash of consumer's username\r\n     * @param _startUnitBalance The base units balance purchased on new meter\r\n     */\r\n     //@emit (meterSerial, consumerId, \"meter added successfully\")\r\n    function addMeter (string memory _serial, bytes32 _consumerUsernameHash, uint64 _startUnitBalance) public isOwner{\r\n        require(doesConsumerExist(_consumerUsernameHash), \"no existing customer for meter\");\r\n        Meter memory _meter;\r\n        _meter.serial = _serial;\r\n        _meter.unitBalance = _startUnitBalance;\r\n        _meter.consumerUsernameHash = _consumerUsernameHash;\r\n        \r\n        meters_map[_serial] = _meter;\r\n        \r\n        // increase meters owned by consumer\r\n        updateConsumerMeterCount(_meter.consumerUsernameHash);\r\n        \r\n        emit meterSaved(_meter.serial, _meter.consumerUsernameHash, \"meter added successfully\");\r\n    }\r\n    \r\n    /** \r\n     * @dev Save new consumer on chain\r\n     * @param username The username of the new consumer\r\n     * @param password The password of the new consumer\r\n     */\r\n     //@emit (consumerUsernameHash, \"consumer added successfully\")\r\n    function addConsumer (string memory username, string memory password) public isOwner {\r\n        bytes32 _usernameHash = keccak256(abi.encode(username));\r\n        bytes32 _passwordHash = keccak256(abi.encode(password));\r\n        Consumer memory _consumer;\r\n        _consumer.usernameHash = _usernameHash;\r\n        _consumer.passwordHash = _passwordHash;\r\n        consumers_map[_usernameHash] = _consumer;\r\n        \r\n        emit consumerSaved(_consumer.usernameHash, \"consumer added successfully\");\r\n    }\r\n    \r\n    /** \r\n     * @dev Save new energy producer on chain\r\n     * @param username The username of the new producer\r\n     * @param password The password of the new producer\r\n     */\r\n     //@emit (producerUsernameHash, \"producer added successfully\")\r\n    function addProducer (string memory username, string memory password) public isOwner {\r\n        bytes32 _usernameHash = keccak256(abi.encode(username));\r\n        bytes32 _passwordHash = keccak256(abi.encode(password));\r\n        Producer memory producer;\r\n        producer.usernameHash = _usernameHash;\r\n        producer.passwordHash = _passwordHash;\r\n        producers_map[_usernameHash] = producer;\r\n        \r\n        emit producerSaved(producer.usernameHash, \"producer added successfully\");\r\n    }\r\n    \r\n    /** \r\n     * @dev save transaction of token loaded to smart meter. This is saved to the meter's transaction history\r\n     * @param _meterSerial Unique ID of meter\r\n     * @param _token Energy token bought for loading. Unique transaction identifier\r\n     * @param _consumerUsernameHash Hash of consumer's username\r\n     * @param _producerUsernameHash Hash of producer's username\r\n     * @param _unitsBought Energy units paid for\r\n     * @param _price Price per unit\r\n     */\r\n     //@emit (unique/used transaction token, \"transaction added successfully\")\r\n    function addTransaction(string memory _meterSerial, string memory _token, bytes32 _consumerUsernameHash,\r\n                bytes32 _producerUsernameHash, uint64 _unitsBought, uint64 _price) public isOwner {\r\n        require(doesMeterExist(_meterSerial), \"meter does not exist\");\r\n        \r\n        Transaction memory _transaction;\r\n        _transaction.meterSerial = _meterSerial;\r\n        _transaction.token = _token;\r\n        _transaction.consumerUsernameHash = _consumerUsernameHash;\r\n        _transaction.producerUsernameHash = _producerUsernameHash;\r\n        _transaction.unitsBought = _unitsBought;\r\n        _transaction.price = _price;\r\n        \r\n        //keep track of transactions tied to a meter\r\n        meterTransactions_map[_transaction.meterSerial].push(_transaction);\r\n        \r\n        //update meter balance\r\n        meters_map[_transaction.meterSerial].unitBalance += _unitsBought;\r\n        \r\n        emit transactionSaved(_transaction.token, \"transaction added successfully\");\r\n    }\r\n    \r\n    /** \r\n     * @dev save new meter energy consumption\r\n     * @param _meterSerial Unique ID of meter\r\n     * @param _consumedUnits The meter consumption\r\n     */\r\n    //@emit (meterSerial, unitsConsumed, \"consumption saved successfully\")\r\n    function addConsumption(string memory _meterSerial, uint64 _consumedUnits) public isOwner {\r\n        require(doesMeterExist(_meterSerial), \"meter does not exist\");\r\n        \r\n        EnergyConsumption memory _consumption;\r\n        _consumption.consumedUnits = _consumedUnits;\r\n        _consumption.meterSerial = _meterSerial;\r\n        meterConsumptions_map[_consumption.meterSerial].push(_consumption);\r\n        \r\n        //subtract from balance\r\n        meters_map[_meterSerial].unitBalance -= _consumedUnits;\r\n        \r\n        emit consumptionSaved(_consumption.meterSerial, _consumption.consumedUnits, \"consumption saved successfully\");\r\n    }\r\n    \r\n    /** \r\n     * @dev increase consumer meters count by one when they acquire new smart meter\r\n     * @param _usernameHash The username hash of the consumer who wants to add new smart meter\r\n     */\r\n     //@emit (\"consumer meter count updated\")\r\n    function updateConsumerMeterCount (bytes32 _usernameHash) private {\r\n        Consumer storage consumer = consumers_map[_usernameHash];\r\n        consumer.meterCount += 1;\r\n        \r\n        emit meterCountUpdated(\"consumer meter count updated\");\r\n    }\r\n    \r\n    /** \r\n     * @dev Checks if meter exists on blockchain\r\n     * @param _meterSerial The ID of the meter\r\n     */\r\n    function doesMeterExist(string memory _meterSerial) private view returns(bool){\r\n        if(bytes(meters_map[_meterSerial].serial).length == 0){\r\n            return false;\r\n        }\r\n        return true;\r\n    }\r\n    \r\n     /** \r\n     * @dev Checks if customer exists on blockchain\r\n     * @param consumerUsernameHash The hash of customer username\r\n     */\r\n    function doesConsumerExist(bytes32 consumerUsernameHash) private view returns(bool){\r\n        if(consumers_map[consumerUsernameHash].usernameHash == 0){\r\n            return false;\r\n        }\r\n        return true;\r\n    }\r\n    \r\n    /** \r\n     * @dev fetch consumer for authentication\r\n     * @param _rawPassword The raw password input of consumer from clientside\r\n     * @param _rawUsername The raw username input of consumer from clientside\r\n     * @return _consumer The consumer\r\n     */\r\n    function getConsumerAuth(string memory _rawUsername, string memory _rawPassword) public returns (Consumer memory _consumer){\r\n        bytes32 _usernameHash = keccak256(abi.encode(_rawUsername));\r\n        _consumer = consumers_map[_usernameHash];\r\n        \r\n        string memory evtMsg = \"\";\r\n        if(keccak256(abi.encode(_rawPassword)) == _consumer.passwordHash){\r\n            evtMsg = \"consumer authentication successful\";\r\n        }else{\r\n            evtMsg = \"authentication failed\";\r\n        }\r\n        \r\n        emit consumerAuth(_usernameHash, evtMsg);\r\n    }\r\n    \r\n    /** \r\n     * @dev fetch all the token transactions made for a particular meter\r\n     * @param _meterSerial The id of the meter whose transaction history is required\r\n     * @return _meterTransations An array of transactions mapped by the meterId\r\n     */\r\n    function getMeterTransactions(string memory _meterSerial) public returns (Transaction[] memory _meterTransactions){\r\n        _meterTransactions = meterTransactions_map[_meterSerial];\r\n        \r\n        string memory evMsg = \"meter transactions fetched successfully\";\r\n        if(_meterTransactions.length == 0)\r\n            evMsg = \"transactions not found\";\r\n        \r\n        emit meterTrasactionsFetched(_meterTransactions, evMsg);\r\n    }\r\n    \r\n     /** \r\n     * @dev fetch details of single meter token Transaction\r\n     * @param _token The ID of the transaction to be fetched\r\n     * @param _meterSerial The ID of the meter that owns transaction\r\n     * @return _transaction Transaction details\r\n     */\r\n    function getTransaction(string memory _token, string memory _meterSerial) public returns (Transaction memory _transaction){\r\n        Transaction[] memory _meterTransactions = getMeterTransactions(_meterSerial);\r\n        \r\n        // transaction search is more likely to be for recent transactions\r\n        for(uint i=_meterTransactions.length - 1; i >= 0; i--){\r\n            if(keccak256(abi.encodePacked(_meterTransactions[i].token)) == keccak256(abi.encodePacked(_token))){\r\n                _transaction = _meterTransactions[i];\r\n                break;\r\n            }\r\n        }\r\n        string memory evMsg = \"meter transaction fetched successfully\";\r\n        \r\n        if(_transaction.id < 1)\r\n            evMsg = \"transaction not found\";\r\n        \r\n        emit trasactionFetched(_transaction, evMsg);\r\n    }\r\n}",
  "sourcePath": "C:/Users/Ademola/apps/team-5/contracts/MOPower.sol",
  "compiler": {
    "name": "solc",
    "version": "0.5.16+commit.9c3226ce.Emscripten.clang"
  },
  "schemaVersion": "3.3.0",
  "updatedAt": "2020-10-25T22:16:08.599Z",
  "networkType": "ethereum",
  "devdoc": {
    "details": "Implements meter transactions and consumption on immutable ledger",
    "methods": {
      "addConsumer(string,string)": {
        "details": "Save new consumer on chain",
        "params": {
          "password": "The password of the new consumer",
          "username": "The username of the new consumer"
        }
      },
      "addConsumption(string,uint64)": {
        "details": "save new meter energy consumption",
        "params": {
          "_consumedUnits": "The meter consumption",
          "_meterSerial": "Unique ID of meter"
        }
      },
      "addMeter(string,bytes32,uint64)": {
        "details": "Save new meter on chain",
        "params": {
          "_consumerUsernameHash": "The hash of consumer's username",
          "_serial": "The unique ID of the meter",
          "_startUnitBalance": "The base units balance purchased on new meter"
        }
      },
      "addProducer(string,string)": {
        "details": "Save new energy producer on chain",
        "params": {
          "password": "The password of the new producer",
          "username": "The username of the new producer"
        }
      },
      "addTransaction(string,string,bytes32,bytes32,uint64,uint64)": {
        "details": "save transaction of token loaded to smart meter. This is saved to the meter's transaction history",
        "params": {
          "_consumerUsernameHash": "Hash of consumer's username",
          "_meterSerial": "Unique ID of meter",
          "_price": "Price per unit",
          "_producerUsernameHash": "Hash of producer's username",
          "_token": "Energy token bought for loading. Unique transaction identifier",
          "_unitsBought": "Energy units paid for"
        }
      },
      "constructor": {
        "details": "Initialize contract and set owner as sender"
      },
      "getConsumerAuth(string,string)": {
        "details": "fetch consumer for authentication",
        "params": {
          "_rawPassword": "The raw password input of consumer from clientside",
          "_rawUsername": "The raw username input of consumer from clientside"
        },
        "return": "_consumer The consumer"
      },
      "getMeterTransactions(string)": {
        "details": "fetch all the token transactions made for a particular meter",
        "params": {
          "_meterSerial": "The id of the meter whose transaction history is required"
        },
        "return": "_meterTransations An array of transactions mapped by the meterId"
      },
      "getTransaction(string,string)": {
        "details": "fetch details of single meter token Transaction",
        "params": {
          "_meterSerial": "The ID of the meter that owns transaction",
          "_token": "The ID of the transaction to be fetched"
        },
        "return": "_transaction Transaction details"
      }
    },
    "title": "MOPower"
  },
  "userdoc": {
    "methods": {}
  }
}