{
  "contractName": "Inbox",
  "abi": [
    {
      "inputs": [],
      "payable": false,
      "stateMutability": "nonpayable",
      "type": "constructor"
    },
    {
      "anonymous": false,
      "inputs": [
        {
          "indexed": false,
          "internalType": "string",
          "name": "response",
          "type": "string"
        }
      ],
      "name": "inboxResponse",
      "type": "event"
    },
    {
      "anonymous": false,
      "inputs": [
        {
          "indexed": false,
          "internalType": "string",
          "name": "_ipfsHash",
          "type": "string"
        },
        {
          "indexed": false,
          "internalType": "address",
          "name": "_address",
          "type": "address"
        }
      ],
      "name": "ipfsSent",
      "type": "event"
    },
    {
      "constant": true,
      "inputs": [
        {
          "internalType": "address",
          "name": "",
          "type": "address"
        }
      ],
      "name": "ipfsInbox",
      "outputs": [
        {
          "internalType": "string",
          "name": "",
          "type": "string"
        }
      ],
      "payable": false,
      "stateMutability": "view",
      "type": "function"
    },
    {
      "constant": false,
      "inputs": [
        {
          "internalType": "address",
          "name": "_address",
          "type": "address"
        },
        {
          "internalType": "string",
          "name": "_ipfsHash",
          "type": "string"
        }
      ],
      "name": "sendIPFS",
      "outputs": [],
      "payable": false,
      "stateMutability": "nonpayable",
      "type": "function"
    },
    {
      "constant": false,
      "inputs": [],
      "name": "checkInbox",
      "outputs": [],
      "payable": false,
      "stateMutability": "nonpayable",
      "type": "function"
    }
  ],
  "bytecode": "0x608060405234801561001057600080fd5b506107d9806100206000396000f3fe608060405234801561001057600080fd5b50600436106100415760003560e01c80635c23d56f146100465780636bfc70e214610050578063d395a3cc1461012b575b600080fd5b61004e6101e8565b005b6101296004803603604081101561006657600080fd5b81019080803573ffffffffffffffffffffffffffffffffffffffff169060200190929190803590602001906401000000008111156100a357600080fd5b8201836020820111156100b557600080fd5b803590602001918460018302840111640100000000831117156100d757600080fd5b91908080601f016020809104026020016040519081016040528093929190818152602001838380828437600081840152601f19601f82011690508083019250505050505050919291929050505061043c565b005b61016d6004803603602081101561014157600080fd5b81019080803573ffffffffffffffffffffffffffffffffffffffff16906020019092919050505061064f565b6040518080602001828103825283818151815260200191508051906020019080838360005b838110156101ad578082015181840152602081019050610192565b50505050905090810190601f1680156101da5780820380516001836020036101000a031916815260200191505b509250505060405180910390f35b60606000803373ffffffffffffffffffffffffffffffffffffffff1673ffffffffffffffffffffffffffffffffffffffff1681526020019081526020016000208054600181600116156101000203166002900480601f0160208091040260200160405190810160405280929190818152602001828054600181600116156101000203166002900480156102bc5780601f10610291576101008083540402835291602001916102bc565b820191906000526020600020905b81548152906001019060200180831161029f57829003601f168201915b5050505050905060008151141561033a577f2974ec83b4de9f76155d0c3e88bd3c0645c56c1795807f37d3f9e95caafeee5760405180806020018281038252600b8152602001807f456d70747920496e626f7800000000000000000000000000000000000000000081525060200191505060405180910390a1610439565b604051806020016040528060008152506000803373ffffffffffffffffffffffffffffffffffffffff1673ffffffffffffffffffffffffffffffffffffffff168152602001908152602001600020908051906020019061039b9291906106ff565b507f2974ec83b4de9f76155d0c3e88bd3c0645c56c1795807f37d3f9e95caafeee57816040518080602001828103825283818151815260200191508051906020019080838360005b838110156103fe5780820151818401526020810190506103e3565b50505050905090810190601f16801561042b5780820380516001836020036101000a031916815260200191505b509250505060405180910390a15b50565b6000808373ffffffffffffffffffffffffffffffffffffffff1673ffffffffffffffffffffffffffffffffffffffff1681526020019081526020016000208054600181600116156101000203166002900480601f01602080910402602001604051908101604052809291908181526020018280546001816001161561010002031660029004801561050e5780601f106104e35761010080835404028352916020019161050e565b820191906000526020600020905b8154815290600101906020018083116104f157829003601f168201915b50505050506060819050600081511461052657600080fd5b826000808673ffffffffffffffffffffffffffffffffffffffff1673ffffffffffffffffffffffffffffffffffffffff16815260200190815260200160002090805190602001906105789291906106ff565b507fd3896131bca4353bcda578f36768163e2ca77cefb2988be6c4e81939ca298ac0838560405180806020018373ffffffffffffffffffffffffffffffffffffffff1673ffffffffffffffffffffffffffffffffffffffff168152602001828103825284818151815260200191508051906020019080838360005b8381101561060e5780820151818401526020810190506105f3565b50505050905090810190601f16801561063b5780820380516001836020036101000a031916815260200191505b50935050505060405180910390a150505050565b60006020528060005260406000206000915090508054600181600116156101000203166002900480601f0160208091040260200160405190810160405280929190818152602001828054600181600116156101000203166002900480156106f75780601f106106cc576101008083540402835291602001916106f7565b820191906000526020600020905b8154815290600101906020018083116106da57829003601f168201915b505050505081565b828054600181600116156101000203166002900490600052602060002090601f016020900481019282601f1061074057805160ff191683800117855561076e565b8280016001018555821561076e579182015b8281111561076d578251825591602001919060010190610752565b5b50905061077b919061077f565b5090565b6107a191905b8082111561079d576000816000905550600101610785565b5090565b9056fea265627a7a723158203fdfc71fe6e2169ec1ebf0a33bdd24d29870a1d0fae8cb2880c132d66830381f64736f6c63430005100032",
  "source": "pragma solidity ^0.5.0;\r\n\r\ncontract Inbox{\r\n    //Structure\r\n    mapping (address=>string) public ipfsInbox;\r\n    \r\n    //Events\r\n    event ipfsSent(string _ipfsHash, address _address);\r\n    event inboxResponse(string response);\r\n    \r\n    //Modifiers\r\n    modifier notFull (string memory _string) {\r\n    bytes memory stringTest = bytes(_string); \r\n    require(stringTest.length==0); \r\n    _;\r\n    }\r\n    \r\n    // An empty constructor that creates an instance of the conteact\r\n    constructor() public{}\r\n    \r\n    //takes in receiver's address and IPFS address. Places the IPFSadress in the receiver's inbox\r\n    function sendIPFS(address _address, string memory _ipfsHash) notFull(ipfsInbox[_address]) public{\r\n        ipfsInbox[_address] = _ipfsHash;\r\n        emit ipfsSent(_ipfsHash, _address);\r\n    }\r\n    \r\n    //check your inbox and empties it afterwards\r\n    function checkInbox() public{\r\n        string memory ipfs_hash=ipfsInbox[msg.sender];\r\n        if(bytes(ipfs_hash).length==0){\r\n            emit inboxResponse(\"Empty Inbox\");\r\n        }else{\r\n            ipfsInbox[msg.sender]=\"\";\r\n            emit inboxResponse(ipfs_hash);\r\n        }\r\n    }\r\n    \r\n}",
  "sourcePath": "C:/Users/Ademola/apps/team-5/test/contracts/Inbox.sol",
  "compiler": {
    "name": "solc",
    "version": "0.5.16+commit.9c3226ce.Emscripten.clang"
  },
  "schemaVersion": "3.3.0",
  "updatedAt": "2021-01-05T21:39:47.820Z",
  "devdoc": {
    "methods": {}
  },
  "userdoc": {
    "methods": {}
  }
}